{
  "_format": "hh-sol-artifact-1",
  "contractName": "ProjectSubmission",
  "sourceName": "contracts/ProjectSubmission.sol",
  "abi": [
    {
      "inputs": [
        {
          "internalType": "address",
          "name": "owner",
          "type": "address"
        }
      ],
      "name": "OwnableInvalidOwner",
      "type": "error"
    },
    {
      "inputs": [
        {
          "internalType": "address",
          "name": "account",
          "type": "address"
        }
      ],
      "name": "OwnableUnauthorizedAccount",
      "type": "error"
    },
    {
      "anonymous": false,
      "inputs": [
        {
          "indexed": true,
          "internalType": "address",
          "name": "previousOwner",
          "type": "address"
        },
        {
          "indexed": true,
          "internalType": "address",
          "name": "newOwner",
          "type": "address"
        }
      ],
      "name": "OwnershipTransferred",
      "type": "event"
    },
    {
      "anonymous": false,
      "inputs": [
        {
          "indexed": false,
          "internalType": "uint256",
          "name": "projectId",
          "type": "uint256"
        }
      ],
      "name": "ProjectApproved",
      "type": "event"
    },
    {
      "anonymous": false,
      "inputs": [
        {
          "indexed": false,
          "internalType": "uint256",
          "name": "id",
          "type": "uint256"
        },
        {
          "indexed": false,
          "internalType": "string",
          "name": "name",
          "type": "string"
        },
        {
          "indexed": false,
          "internalType": "string",
          "name": "description",
          "type": "string"
        },
        {
          "indexed": false,
          "internalType": "address",
          "name": "creator",
          "type": "address"
        },
        {
          "indexed": false,
          "internalType": "uint256",
          "name": "monthlyYield",
          "type": "uint256"
        },
        {
          "indexed": false,
          "internalType": "uint256",
          "name": "grantTotal",
          "type": "uint256"
        },
        {
          "indexed": false,
          "internalType": "uint256",
          "name": "period",
          "type": "uint256"
        },
        {
          "indexed": false,
          "internalType": "bool",
          "name": "approved",
          "type": "bool"
        }
      ],
      "name": "ProjectSubmitted",
      "type": "event"
    },
    {
      "inputs": [
        {
          "internalType": "uint256",
          "name": "_projectId",
          "type": "uint256"
        }
      ],
      "name": "approveProject",
      "outputs": [],
      "stateMutability": "nonpayable",
      "type": "function"
    },
    {
      "inputs": [
        {
          "internalType": "uint256",
          "name": "_projectId",
          "type": "uint256"
        }
      ],
      "name": "getProject",
      "outputs": [
        {
          "components": [
            {
              "internalType": "uint256",
              "name": "id",
              "type": "uint256"
            },
            {
              "internalType": "string",
              "name": "name",
              "type": "string"
            },
            {
              "internalType": "string",
              "name": "description",
              "type": "string"
            },
            {
              "internalType": "address",
              "name": "creator",
              "type": "address"
            },
            {
              "internalType": "uint256",
              "name": "monthlyYield",
              "type": "uint256"
            },
            {
              "internalType": "uint256",
              "name": "grantTotal",
              "type": "uint256"
            },
            {
              "internalType": "uint256",
              "name": "period",
              "type": "uint256"
            },
            {
              "internalType": "bool",
              "name": "approved",
              "type": "bool"
            }
          ],
          "internalType": "struct ProjectSubmission.Project",
          "name": "",
          "type": "tuple"
        }
      ],
      "stateMutability": "view",
      "type": "function"
    },
    {
      "inputs": [],
      "name": "getProjectCount",
      "outputs": [
        {
          "internalType": "uint256",
          "name": "",
          "type": "uint256"
        }
      ],
      "stateMutability": "view",
      "type": "function"
    },
    {
      "inputs": [],
      "name": "getProjects",
      "outputs": [
        {
          "components": [
            {
              "internalType": "uint256",
              "name": "id",
              "type": "uint256"
            },
            {
              "internalType": "string",
              "name": "name",
              "type": "string"
            },
            {
              "internalType": "string",
              "name": "description",
              "type": "string"
            },
            {
              "internalType": "address",
              "name": "creator",
              "type": "address"
            },
            {
              "internalType": "uint256",
              "name": "monthlyYield",
              "type": "uint256"
            },
            {
              "internalType": "uint256",
              "name": "grantTotal",
              "type": "uint256"
            },
            {
              "internalType": "uint256",
              "name": "period",
              "type": "uint256"
            },
            {
              "internalType": "bool",
              "name": "approved",
              "type": "bool"
            }
          ],
          "internalType": "struct ProjectSubmission.Project[]",
          "name": "",
          "type": "tuple[]"
        }
      ],
      "stateMutability": "view",
      "type": "function"
    },
    {
      "inputs": [],
      "name": "owner",
      "outputs": [
        {
          "internalType": "address",
          "name": "",
          "type": "address"
        }
      ],
      "stateMutability": "view",
      "type": "function"
    },
    {
      "inputs": [],
      "name": "projectCount",
      "outputs": [
        {
          "internalType": "uint256",
          "name": "",
          "type": "uint256"
        }
      ],
      "stateMutability": "view",
      "type": "function"
    },
    {
      "inputs": [
        {
          "internalType": "uint256",
          "name": "",
          "type": "uint256"
        }
      ],
      "name": "projects",
      "outputs": [
        {
          "internalType": "uint256",
          "name": "id",
          "type": "uint256"
        },
        {
          "internalType": "string",
          "name": "name",
          "type": "string"
        },
        {
          "internalType": "string",
          "name": "description",
          "type": "string"
        },
        {
          "internalType": "address",
          "name": "creator",
          "type": "address"
        },
        {
          "internalType": "uint256",
          "name": "monthlyYield",
          "type": "uint256"
        },
        {
          "internalType": "uint256",
          "name": "grantTotal",
          "type": "uint256"
        },
        {
          "internalType": "uint256",
          "name": "period",
          "type": "uint256"
        },
        {
          "internalType": "bool",
          "name": "approved",
          "type": "bool"
        }
      ],
      "stateMutability": "view",
      "type": "function"
    },
    {
      "inputs": [],
      "name": "renounceOwnership",
      "outputs": [],
      "stateMutability": "nonpayable",
      "type": "function"
    },
    {
      "inputs": [
        {
          "internalType": "string",
          "name": "_name",
          "type": "string"
        },
        {
          "internalType": "string",
          "name": "_description",
          "type": "string"
        },
        {
          "internalType": "uint256",
          "name": "_monthlyYield",
          "type": "uint256"
        },
        {
          "internalType": "uint256",
          "name": "_grantTotal",
          "type": "uint256"
        },
        {
          "internalType": "uint256",
          "name": "_period",
          "type": "uint256"
        }
      ],
      "name": "submitProject",
      "outputs": [],
      "stateMutability": "nonpayable",
      "type": "function"
    },
    {
      "inputs": [
        {
          "internalType": "address",
          "name": "newOwner",
          "type": "address"
        }
      ],
      "name": "transferOwnership",
      "outputs": [],
      "stateMutability": "nonpayable",
      "type": "function"
    }
  ],
  "bytecode": "0x608060405260006001553480156200001657600080fd5b5033600073ffffffffffffffffffffffffffffffffffffffff168173ffffffffffffffffffffffffffffffffffffffff16036200008d5760006040517f1e4fbdf7000000000000000000000000000000000000000000000000000000008152600401620000849190620001ae565b60405180910390fd5b6200009e81620000a560201b60201c565b50620001cb565b60008060009054906101000a900473ffffffffffffffffffffffffffffffffffffffff169050816000806101000a81548173ffffffffffffffffffffffffffffffffffffffff021916908373ffffffffffffffffffffffffffffffffffffffff1602179055508173ffffffffffffffffffffffffffffffffffffffff168173ffffffffffffffffffffffffffffffffffffffff167f8be0079c531659141344cd1fd0a4f28419497f9722a3daafe3b4186f6b6457e060405160405180910390a35050565b600073ffffffffffffffffffffffffffffffffffffffff82169050919050565b6000620001968262000169565b9050919050565b620001a88162000189565b82525050565b6000602082019050620001c560008301846200019d565b92915050565b61195080620001db6000396000f3fe608060405234801561001057600080fd5b506004361061009e5760003560e01c8063dcc6012811610066578063dcc601281461013e578063f0f3f2c81461015c578063f2fde38b1461018c578063fa12ff2f146101a8578063fc69d836146101c45761009e565b8063107046bd146100a357806336fbad26146100da5780633bcff3b0146100f8578063715018a6146101165780638da5cb5b14610120575b600080fd5b6100bd60048036038101906100b89190610d74565b6101e0565b6040516100d1989796959493929190610e9c565b60405180910390f35b6100e2610375565b6040516100ef9190610f28565b60405180910390f35b61010061037b565b60405161010d9190610f28565b60405180910390f35b61011e610385565b005b610128610399565b6040516101359190610f43565b60405180910390f35b6101466103c2565b604051610153919061114e565b60405180910390f35b61017660048036038101906101719190610d74565b6105df565b6040516101839190611227565b60405180910390f35b6101a660048036038101906101a19190611275565b610885565b005b6101c260048036038101906101bd91906113d7565b61090b565b005b6101de60048036038101906101d99190610d74565b610ab6565b005b600281815481106101f057600080fd5b9060005260206000209060080201600091509050806000015490806001018054610219906114b9565b80601f0160208091040260200160405190810160405280929190818152602001828054610245906114b9565b80156102925780601f1061026757610100808354040283529160200191610292565b820191906000526020600020905b81548152906001019060200180831161027557829003601f168201915b5050505050908060020180546102a7906114b9565b80601f01602080910402602001604051908101604052809291908181526020018280546102d3906114b9565b80156103205780601f106102f557610100808354040283529160200191610320565b820191906000526020600020905b81548152906001019060200180831161030357829003601f168201915b5050505050908060030160009054906101000a900473ffffffffffffffffffffffffffffffffffffffff16908060040154908060050154908060060154908060070160009054906101000a900460ff16905088565b60015481565b6000600154905090565b61038d610b7a565b6103976000610c01565b565b60008060009054906101000a900473ffffffffffffffffffffffffffffffffffffffff16905090565b60606002805480602002602001604051908101604052809291908181526020016000905b828210156105d657838290600052602060002090600802016040518061010001604052908160008201548152602001600182018054610424906114b9565b80601f0160208091040260200160405190810160405280929190818152602001828054610450906114b9565b801561049d5780601f106104725761010080835404028352916020019161049d565b820191906000526020600020905b81548152906001019060200180831161048057829003601f168201915b505050505081526020016002820180546104b6906114b9565b80601f01602080910402602001604051908101604052809291908181526020018280546104e2906114b9565b801561052f5780601f106105045761010080835404028352916020019161052f565b820191906000526020600020905b81548152906001019060200180831161051257829003601f168201915b505050505081526020016003820160009054906101000a900473ffffffffffffffffffffffffffffffffffffffff1673ffffffffffffffffffffffffffffffffffffffff1673ffffffffffffffffffffffffffffffffffffffff1681526020016004820154815260200160058201548152602001600682015481526020016007820160009054906101000a900460ff161515151581525050815260200190600101906103e6565b50505050905090565b6105e7610ccd565b600154821061062b576040517f08c379a000000000000000000000000000000000000000000000000000000000815260040161062290611536565b60405180910390fd5b60006002838154811061064157610640611556565b5b90600052602060002090600802016000015403610693576040517f08c379a000000000000000000000000000000000000000000000000000000000815260040161068a906115d1565b60405180910390fd5b600282815481106106a7576106a6611556565b5b906000526020600020906008020160405180610100016040529081600082015481526020016001820180546106db906114b9565b80601f0160208091040260200160405190810160405280929190818152602001828054610707906114b9565b80156107545780601f1061072957610100808354040283529160200191610754565b820191906000526020600020905b81548152906001019060200180831161073757829003601f168201915b5050505050815260200160028201805461076d906114b9565b80601f0160208091040260200160405190810160405280929190818152602001828054610799906114b9565b80156107e65780601f106107bb576101008083540402835291602001916107e6565b820191906000526020600020905b8154815290600101906020018083116107c957829003601f168201915b505050505081526020016003820160009054906101000a900473ffffffffffffffffffffffffffffffffffffffff1673ffffffffffffffffffffffffffffffffffffffff1673ffffffffffffffffffffffffffffffffffffffff1681526020016004820154815260200160058201548152602001600682015481526020016007820160009054906101000a900460ff1615151515815250509050919050565b61088d610b7a565b600073ffffffffffffffffffffffffffffffffffffffff168173ffffffffffffffffffffffffffffffffffffffff16036108ff5760006040517f1e4fbdf70000000000000000000000000000000000000000000000000000000081526004016108f69190610f43565b60405180910390fd5b61090881610c01565b50565b60026040518061010001604052806001600081548092919061092c90611620565b9190505581526020018781526020018681526020013373ffffffffffffffffffffffffffffffffffffffff1681526020018581526020018481526020018381526020016000151581525090806001815401808255809150506001900390600052602060002090600802016000909190919091506000820151816000015560208201518160010190816109be9190611814565b5060408201518160020190816109d49190611814565b5060608201518160030160006101000a81548173ffffffffffffffffffffffffffffffffffffffff021916908373ffffffffffffffffffffffffffffffffffffffff1602179055506080820151816004015560a0820151816005015560c0820151816006015560e08201518160070160006101000a81548160ff02191690831515021790555050507f7db36ecc6e38b1d2c3bb4348dcb61d15b1d0963c1f2643459150e33534dd5b4c60018054610a8b91906118e6565b8686338787876000604051610aa7989796959493929190610e9c565b60405180910390a15050505050565b610abe610b7a565b6001548110610b02576040517f08c379a0000000000000000000000000000000000000000000000000000000008152600401610af990611536565b60405180910390fd5b600160028281548110610b1857610b17611556565b5b906000526020600020906008020160070160006101000a81548160ff0219169083151502179055507ffc534544f8ed1b516bf078b4ae88509d8f81f4fafefb10e9aad53e3e1fbce9bb81604051610b6f9190610f28565b60405180910390a150565b610b82610cc5565b73ffffffffffffffffffffffffffffffffffffffff16610ba0610399565b73ffffffffffffffffffffffffffffffffffffffff1614610bff57610bc3610cc5565b6040517f118cdaa7000000000000000000000000000000000000000000000000000000008152600401610bf69190610f43565b60405180910390fd5b565b60008060009054906101000a900473ffffffffffffffffffffffffffffffffffffffff169050816000806101000a81548173ffffffffffffffffffffffffffffffffffffffff021916908373ffffffffffffffffffffffffffffffffffffffff1602179055508173ffffffffffffffffffffffffffffffffffffffff168173ffffffffffffffffffffffffffffffffffffffff167f8be0079c531659141344cd1fd0a4f28419497f9722a3daafe3b4186f6b6457e060405160405180910390a35050565b600033905090565b604051806101000160405280600081526020016060815260200160608152602001600073ffffffffffffffffffffffffffffffffffffffff1681526020016000815260200160008152602001600081526020016000151581525090565b6000604051905090565b600080fd5b600080fd5b6000819050919050565b610d5181610d3e565b8114610d5c57600080fd5b50565b600081359050610d6e81610d48565b92915050565b600060208284031215610d8a57610d89610d34565b5b6000610d9884828501610d5f565b91505092915050565b610daa81610d3e565b82525050565b600081519050919050565b600082825260208201905092915050565b60005b83811015610dea578082015181840152602081019050610dcf565b60008484015250505050565b6000601f19601f8301169050919050565b6000610e1282610db0565b610e1c8185610dbb565b9350610e2c818560208601610dcc565b610e3581610df6565b840191505092915050565b600073ffffffffffffffffffffffffffffffffffffffff82169050919050565b6000610e6b82610e40565b9050919050565b610e7b81610e60565b82525050565b60008115159050919050565b610e9681610e81565b82525050565b600061010082019050610eb2600083018b610da1565b8181036020830152610ec4818a610e07565b90508181036040830152610ed88189610e07565b9050610ee76060830188610e72565b610ef46080830187610da1565b610f0160a0830186610da1565b610f0e60c0830185610da1565b610f1b60e0830184610e8d565b9998505050505050505050565b6000602082019050610f3d6000830184610da1565b92915050565b6000602082019050610f586000830184610e72565b92915050565b600081519050919050565b600082825260208201905092915050565b6000819050602082019050919050565b610f9381610d3e565b82525050565b600082825260208201905092915050565b6000610fb582610db0565b610fbf8185610f99565b9350610fcf818560208601610dcc565b610fd881610df6565b840191505092915050565b610fec81610e60565b82525050565b610ffb81610e81565b82525050565b60006101008301600083015161101a6000860182610f8a565b50602083015184820360208601526110328282610faa565b9150506040830151848203604086015261104c8282610faa565b91505060608301516110616060860182610fe3565b5060808301516110746080860182610f8a565b5060a083015161108760a0860182610f8a565b5060c083015161109a60c0860182610f8a565b5060e08301516110ad60e0860182610ff2565b508091505092915050565b60006110c48383611001565b905092915050565b6000602082019050919050565b60006110e482610f5e565b6110ee8185610f69565b93508360208202850161110085610f7a565b8060005b8581101561113c578484038952815161111d85826110b8565b9450611128836110cc565b925060208a01995050600181019050611104565b50829750879550505050505092915050565b6000602082019050818103600083015261116881846110d9565b905092915050565b6000610100830160008301516111896000860182610f8a565b50602083015184820360208601526111a18282610faa565b915050604083015184820360408601526111bb8282610faa565b91505060608301516111d06060860182610fe3565b5060808301516111e36080860182610f8a565b5060a08301516111f660a0860182610f8a565b5060c083015161120960c0860182610f8a565b5060e083015161121c60e0860182610ff2565b508091505092915050565b600060208201905081810360008301526112418184611170565b905092915050565b61125281610e60565b811461125d57600080fd5b50565b60008135905061126f81611249565b92915050565b60006020828403121561128b5761128a610d34565b5b600061129984828501611260565b91505092915050565b600080fd5b600080fd5b7f4e487b7100000000000000000000000000000000000000000000000000000000600052604160045260246000fd5b6112e482610df6565b810181811067ffffffffffffffff82111715611303576113026112ac565b5b80604052505050565b6000611316610d2a565b905061132282826112db565b919050565b600067ffffffffffffffff821115611342576113416112ac565b5b61134b82610df6565b9050602081019050919050565b82818337600083830152505050565b600061137a61137584611327565b61130c565b905082815260208101848484011115611396576113956112a7565b5b6113a1848285611358565b509392505050565b600082601f8301126113be576113bd6112a2565b5b81356113ce848260208601611367565b91505092915050565b600080600080600060a086880312156113f3576113f2610d34565b5b600086013567ffffffffffffffff81111561141157611410610d39565b5b61141d888289016113a9565b955050602086013567ffffffffffffffff81111561143e5761143d610d39565b5b61144a888289016113a9565b945050604061145b88828901610d5f565b935050606061146c88828901610d5f565b925050608061147d88828901610d5f565b9150509295509295909350565b7f4e487b7100000000000000000000000000000000000000000000000000000000600052602260045260246000fd5b600060028204905060018216806114d157607f821691505b6020821081036114e4576114e361148a565b5b50919050565b7f496e76616c69642070726f6a6563742049440000000000000000000000000000600082015250565b6000611520601283610dbb565b915061152b826114ea565b602082019050919050565b6000602082019050818103600083015261154f81611513565b9050919050565b7f4e487b7100000000000000000000000000000000000000000000000000000000600052603260045260246000fd5b7f50726f6a65637420646f6573206e6f7420657869737400000000000000000000600082015250565b60006115bb601683610dbb565b91506115c682611585565b602082019050919050565b600060208201905081810360008301526115ea816115ae565b9050919050565b7f4e487b7100000000000000000000000000000000000000000000000000000000600052601160045260246000fd5b600061162b82610d3e565b91507fffffffffffffffffffffffffffffffffffffffffffffffffffffffffffffffff820361165d5761165c6115f1565b5b600182019050919050565b60008190508160005260206000209050919050565b60006020601f8301049050919050565b600082821b905092915050565b6000600883026116ca7fffffffffffffffffffffffffffffffffffffffffffffffffffffffffffffffff8261168d565b6116d4868361168d565b95508019841693508086168417925050509392505050565b6000819050919050565b600061171161170c61170784610d3e565b6116ec565b610d3e565b9050919050565b6000819050919050565b61172b836116f6565b61173f61173782611718565b84845461169a565b825550505050565b600090565b611754611747565b61175f818484611722565b505050565b5b818110156117835761177860008261174c565b600181019050611765565b5050565b601f8211156117c85761179981611668565b6117a28461167d565b810160208510156117b1578190505b6117c56117bd8561167d565b830182611764565b50505b505050565b600082821c905092915050565b60006117eb600019846008026117cd565b1980831691505092915050565b600061180483836117da565b9150826002028217905092915050565b61181d82610db0565b67ffffffffffffffff811115611836576118356112ac565b5b61184082546114b9565b61184b828285611787565b600060209050601f83116001811461187e576000841561186c578287015190505b61187685826117f8565b8655506118de565b601f19841661188c86611668565b60005b828110156118b45784890151825560018201915060208501945060208101905061188f565b868310156118d157848901516118cd601f8916826117da565b8355505b6001600288020188555050505b505050505050565b60006118f182610d3e565b91506118fc83610d3e565b9250828203905081811115611914576119136115f1565b5b9291505056fea264697066735822122000afd05e6c8c82edd2f13aa11030bff232aec902c60826a6d8df42f49d7428f864736f6c63430008180033",
  "linkReferences": {},
  "deployedLinkReferences": {}
}